{
  "_format": "hh-sol-artifact-1",
  "contractName": "DecimalDelegation",
  "sourceName": "contracts/DecimalDelegation.sol",
  "abi": [
    {
      "inputs": [
        {
          "internalType": "address",
          "name": "target",
          "type": "address"
        }
      ],
      "name": "AddressEmptyCode",
      "type": "error"
    },
    {
      "inputs": [
        {
          "internalType": "address",
          "name": "account",
          "type": "address"
        }
      ],
      "name": "AddressInsufficientBalance",
      "type": "error"
    },
    {
      "inputs": [
        {
          "internalType": "address",
          "name": "implementation",
          "type": "address"
        }
      ],
      "name": "ERC1967InvalidImplementation",
      "type": "error"
    },
    {
      "inputs": [],
      "name": "ERC1967NonPayable",
      "type": "error"
    },
    {
      "inputs": [],
      "name": "EnforcedPause",
      "type": "error"
    },
    {
      "inputs": [],
      "name": "ExpectedPause",
      "type": "error"
    },
    {
      "inputs": [],
      "name": "FailedInnerCall",
      "type": "error"
    },
    {
      "inputs": [],
      "name": "FrozenStakesQueueIsEmpty",
      "type": "error"
    },
    {
      "inputs": [
        {
          "internalType": "uint256",
          "name": "holdTimestamp",
          "type": "uint256"
        },
        {
          "internalType": "uint256",
          "name": "currentTimestamp",
          "type": "uint256"
        }
      ],
      "name": "HoldNotExpired",
      "type": "error"
    },
    {
      "inputs": [],
      "name": "InvalidAmount",
      "type": "error"
    },
    {
      "inputs": [],
      "name": "InvalidFrozenType",
      "type": "error"
    },
    {
      "inputs": [
        {
          "internalType": "uint256",
          "name": "providedHoldTimestamp",
          "type": "uint256"
        }
      ],
      "name": "InvalidHoldTimestamp",
      "type": "error"
    },
    {
      "inputs": [],
      "name": "InvalidInitialization",
      "type": "error"
    },
    {
      "inputs": [],
      "name": "InvalidTimestamp",
      "type": "error"
    },
    {
      "inputs": [],
      "name": "InvalidToken",
      "type": "error"
    },
    {
      "inputs": [],
      "name": "InvalidTokenType",
      "type": "error"
    },
    {
      "inputs": [],
      "name": "InvalidValidator",
      "type": "error"
    },
    {
      "inputs": [],
      "name": "NoCompletableFrozenStakes",
      "type": "error"
    },
    {
      "inputs": [],
      "name": "NoPenaltyToApply",
      "type": "error"
    },
    {
      "inputs": [],
      "name": "NotInitializing",
      "type": "error"
    },
    {
      "inputs": [
        {
          "internalType": "address",
          "name": "owner",
          "type": "address"
        }
      ],
      "name": "OwnableInvalidOwner",
      "type": "error"
    },
    {
      "inputs": [
        {
          "internalType": "address",
          "name": "account",
          "type": "address"
        }
      ],
      "name": "OwnableUnauthorizedAccount",
      "type": "error"
    },
    {
      "inputs": [],
      "name": "ReentrancyGuardReentrantCall",
      "type": "error"
    },
    {
      "inputs": [
        {
          "internalType": "address",
          "name": "token",
          "type": "address"
        }
      ],
      "name": "SafeERC20FailedOperation",
      "type": "error"
    },
    {
      "inputs": [],
      "name": "StakeAlreadyUnfrozen",
      "type": "error"
    },
    {
      "inputs": [],
      "name": "StakeInactive",
      "type": "error"
    },
    {
      "inputs": [
        {
          "internalType": "uint256",
          "name": "unfreezeTimestamp",
          "type": "uint256"
        },
        {
          "internalType": "uint256",
          "name": "currentTimestamp",
          "type": "uint256"
        }
      ],
      "name": "UnfreezeTimestampError",
      "type": "error"
    },
    {
      "inputs": [
        {
          "internalType": "address",
          "name": "recipient",
          "type": "address"
        }
      ],
      "name": "WithdrawFailed",
      "type": "error"
    },
    {
      "inputs": [],
      "name": "ZeroAddress",
      "type": "error"
    },
    {
      "inputs": [],
      "name": "ZeroAmount",
      "type": "error"
    },
    {
      "anonymous": false,
      "inputs": [
        {
          "indexed": false,
          "internalType": "uint256",
          "name": "withdrawFreezeTime",
          "type": "uint256"
        },
        {
          "indexed": false,
          "internalType": "uint256",
          "name": "transferFreezeTime",
          "type": "uint256"
        }
      ],
      "name": "FreezeTimeUpdated",
      "type": "event"
    },
    {
      "anonymous": false,
      "inputs": [
        {
          "indexed": false,
          "internalType": "uint64",
          "name": "version",
          "type": "uint64"
        }
      ],
      "name": "Initialized",
      "type": "event"
    },
    {
      "anonymous": false,
      "inputs": [
        {
          "indexed": true,
          "internalType": "address",
          "name": "previousOwner",
          "type": "address"
        },
        {
          "indexed": true,
          "internalType": "address",
          "name": "newOwner",
          "type": "address"
        }
      ],
      "name": "OwnershipTransferred",
      "type": "event"
    },
    {
      "anonymous": false,
      "inputs": [
        {
          "indexed": false,
          "internalType": "address",
          "name": "account",
          "type": "address"
        }
      ],
      "name": "Paused",
      "type": "event"
    },
    {
      "anonymous": false,
      "inputs": [
        {
          "indexed": true,
          "internalType": "bytes32",
          "name": "stakeId",
          "type": "bytes32"
        },
        {
          "indexed": false,
          "internalType": "uint256",
          "name": "newPenaltyIndex",
          "type": "uint256"
        }
      ],
      "name": "PenaltyAppliedToStake",
      "type": "event"
    },
    {
      "anonymous": false,
      "inputs": [
        {
          "indexed": true,
          "internalType": "address",
          "name": "validator",
          "type": "address"
        },
        {
          "indexed": false,
          "internalType": "address",
          "name": "token",
          "type": "address"
        },
        {
          "indexed": false,
          "internalType": "enum IDecimalDelegationCommon.TokenType",
          "name": "tokenType",
          "type": "uint8"
        },
        {
          "indexed": false,
          "internalType": "uint256",
          "name": "tokenId",
          "type": "uint256"
        },
        {
          "indexed": false,
          "internalType": "uint256",
          "name": "penaltyIndex",
          "type": "uint256"
        },
        {
          "indexed": false,
          "internalType": "uint256",
          "name": "amountToPenalty",
          "type": "uint256"
        }
      ],
      "name": "PenaltyAppliedToValidator",
      "type": "event"
    },
    {
      "anonymous": false,
      "inputs": [
        {
          "indexed": false,
          "internalType": "bytes32",
          "name": "stakeId",
          "type": "bytes32"
        },
        {
          "indexed": false,
          "internalType": "int256",
          "name": "changedAmount",
          "type": "int256"
        }
      ],
      "name": "StakeAmountUpdated",
      "type": "event"
    },
    {
      "anonymous": false,
      "inputs": [
        {
          "indexed": false,
          "internalType": "bytes32",
          "name": "stakeId",
          "type": "bytes32"
        },
        {
          "components": [
            {
              "internalType": "address",
              "name": "validator",
              "type": "address"
            },
            {
              "internalType": "address",
              "name": "delegator",
              "type": "address"
            },
            {
              "internalType": "address",
              "name": "token",
              "type": "address"
            },
            {
              "internalType": "uint256",
              "name": "amount",
              "type": "uint256"
            },
            {
              "internalType": "uint256",
              "name": "tokenId",
              "type": "uint256"
            },
            {
              "internalType": "enum IDecimalDelegationCommon.TokenType",
              "name": "tokenType",
              "type": "uint8"
            },
            {
              "internalType": "uint256",
              "name": "holdTimestamp",
              "type": "uint256"
            }
          ],
          "indexed": false,
          "internalType": "struct IDecimalDelegationCommon.Stake",
          "name": "stake",
          "type": "tuple"
        },
        {
          "indexed": false,
          "internalType": "bool",
          "name": "isNew",
          "type": "bool"
        }
      ],
      "name": "StakeHolded",
      "type": "event"
    },
    {
      "anonymous": false,
      "inputs": [
        {
          "indexed": false,
          "internalType": "bytes32",
          "name": "stakeId",
          "type": "bytes32"
        },
        {
          "components": [
            {
              "internalType": "address",
              "name": "validator",
              "type": "address"
            },
            {
              "internalType": "address",
              "name": "delegator",
              "type": "address"
            },
            {
              "internalType": "address",
              "name": "token",
              "type": "address"
            },
            {
              "internalType": "uint256",
              "name": "amount",
              "type": "uint256"
            },
            {
              "internalType": "uint256",
              "name": "tokenId",
              "type": "uint256"
            },
            {
              "internalType": "enum IDecimalDelegationCommon.TokenType",
              "name": "tokenType",
              "type": "uint8"
            },
            {
              "internalType": "uint256",
              "name": "holdTimestamp",
              "type": "uint256"
            }
          ],
          "indexed": false,
          "internalType": "struct IDecimalDelegationCommon.Stake",
          "name": "stake",
          "type": "tuple"
        }
      ],
      "name": "StakeReset",
      "type": "event"
    },
    {
      "anonymous": false,
      "inputs": [
        {
          "indexed": false,
          "internalType": "bytes32",
          "name": "stakeId",
          "type": "bytes32"
        },
        {
          "components": [
            {
              "internalType": "address",
              "name": "validator",
              "type": "address"
            },
            {
              "internalType": "address",
              "name": "delegator",
              "type": "address"
            },
            {
              "internalType": "address",
              "name": "token",
              "type": "address"
            },
            {
              "internalType": "uint256",
              "name": "amount",
              "type": "uint256"
            },
            {
              "internalType": "uint256",
              "name": "tokenId",
              "type": "uint256"
            },
            {
              "internalType": "enum IDecimalDelegationCommon.TokenType",
              "name": "tokenType",
              "type": "uint8"
            },
            {
              "internalType": "uint256",
              "name": "holdTimestamp",
              "type": "uint256"
            }
          ],
          "indexed": false,
          "internalType": "struct IDecimalDelegationCommon.Stake",
          "name": "stake",
          "type": "tuple"
        },
        {
          "indexed": false,
          "internalType": "bool",
          "name": "isNew",
          "type": "bool"
        }
      ],
      "name": "StakeUpdated",
      "type": "event"
    },
    {
      "anonymous": false,
      "inputs": [
        {
          "indexed": false,
          "internalType": "uint256",
          "name": "stakeIndex",
          "type": "uint256"
        }
      ],
      "name": "TransferCompleted",
      "type": "event"
    },
    {
      "anonymous": false,
      "inputs": [
        {
          "indexed": false,
          "internalType": "bytes32",
          "name": "stakeId",
          "type": "bytes32"
        },
        {
          "indexed": false,
          "internalType": "uint256",
          "name": "stakeIndex",
          "type": "uint256"
        },
        {
          "components": [
            {
              "components": [
                {
                  "internalType": "address",
                  "name": "validator",
                  "type": "address"
                },
                {
                  "internalType": "address",
                  "name": "delegator",
                  "type": "address"
                },
                {
                  "internalType": "address",
                  "name": "token",
                  "type": "address"
                },
                {
                  "internalType": "uint256",
                  "name": "amount",
                  "type": "uint256"
                },
                {
                  "internalType": "uint256",
                  "name": "tokenId",
                  "type": "uint256"
                },
                {
                  "internalType": "enum IDecimalDelegationCommon.TokenType",
                  "name": "tokenType",
                  "type": "uint8"
                },
                {
                  "internalType": "uint256",
                  "name": "holdTimestamp",
                  "type": "uint256"
                }
              ],
              "internalType": "struct IDecimalDelegationCommon.Stake",
              "name": "stake",
              "type": "tuple"
            },
            {
              "internalType": "enum IDecimalDelegationCommon.FreezeStatus",
              "name": "freezeStatus",
              "type": "uint8"
            },
            {
              "internalType": "enum IDecimalDelegationCommon.FreezeType",
              "name": "freezeType",
              "type": "uint8"
            },
            {
              "internalType": "uint256",
              "name": "unfreezeTimestamp",
              "type": "uint256"
            }
          ],
          "indexed": false,
          "internalType": "struct IDecimalDelegationCommon.FrozenStake",
          "name": "frozenStake",
          "type": "tuple"
        }
      ],
      "name": "TransferRequest",
      "type": "event"
    },
    {
      "anonymous": false,
      "inputs": [
        {
          "indexed": false,
          "internalType": "address",
          "name": "account",
          "type": "address"
        }
      ],
      "name": "Unpaused",
      "type": "event"
    },
    {
      "anonymous": false,
      "inputs": [
        {
          "indexed": true,
          "internalType": "address",
          "name": "implementation",
          "type": "address"
        }
      ],
      "name": "Upgraded",
      "type": "event"
    },
    {
      "anonymous": false,
      "inputs": [
        {
          "indexed": false,
          "internalType": "uint256",
          "name": "stakeIndex",
          "type": "uint256"
        }
      ],
      "name": "WithdrawCompleted",
      "type": "event"
    },
    {
      "anonymous": false,
      "inputs": [
        {
          "indexed": false,
          "internalType": "bytes32",
          "name": "stakeId",
          "type": "bytes32"
        },
        {
          "indexed": false,
          "internalType": "uint256",
          "name": "stakeIndex",
          "type": "uint256"
        },
        {
          "components": [
            {
              "components": [
                {
                  "internalType": "address",
                  "name": "validator",
                  "type": "address"
                },
                {
                  "internalType": "address",
                  "name": "delegator",
                  "type": "address"
                },
                {
                  "internalType": "address",
                  "name": "token",
                  "type": "address"
                },
                {
                  "internalType": "uint256",
                  "name": "amount",
                  "type": "uint256"
                },
                {
                  "internalType": "uint256",
                  "name": "tokenId",
                  "type": "uint256"
                },
                {
                  "internalType": "enum IDecimalDelegationCommon.TokenType",
                  "name": "tokenType",
                  "type": "uint8"
                },
                {
                  "internalType": "uint256",
                  "name": "holdTimestamp",
                  "type": "uint256"
                }
              ],
              "internalType": "struct IDecimalDelegationCommon.Stake",
              "name": "stake",
              "type": "tuple"
            },
            {
              "internalType": "enum IDecimalDelegationCommon.FreezeStatus",
              "name": "freezeStatus",
              "type": "uint8"
            },
            {
              "internalType": "enum IDecimalDelegationCommon.FreezeType",
              "name": "freezeType",
              "type": "uint8"
            },
            {
              "internalType": "uint256",
              "name": "unfreezeTimestamp",
              "type": "uint256"
            }
          ],
          "indexed": false,
          "internalType": "struct IDecimalDelegationCommon.FrozenStake",
          "name": "frozenStake",
          "type": "tuple"
        }
      ],
      "name": "WithdrawRequest",
      "type": "event"
    },
    {
      "inputs": [],
      "name": "WETH",
      "outputs": [
        {
          "internalType": "contract IWETH",
          "name": "",
          "type": "address"
        }
      ],
      "stateMutability": "view",
      "type": "function"
    },
    {
      "inputs": [
        {
          "internalType": "bytes32[]",
          "name": "stakeIds",
          "type": "bytes32[]"
        }
      ],
      "name": "applyPenaltiesToStakes",
      "outputs": [],
      "stateMutability": "nonpayable",
      "type": "function"
    },
    {
      "inputs": [
        {
          "components": [
            {
              "internalType": "address",
              "name": "validator",
              "type": "address"
            },
            {
              "internalType": "address",
              "name": "token",
              "type": "address"
            },
            {
              "internalType": "uint256",
              "name": "tokenId",
              "type": "uint256"
            }
          ],
          "internalType": "struct IDecimalDelegationCommon.ValidatorToken[]",
          "name": "validatorTokens",
          "type": "tuple[]"
        }
      ],
      "name": "applyPenaltiesToValidator",
      "outputs": [],
      "stateMutability": "nonpayable",
      "type": "function"
    },
    {
      "inputs": [
        {
          "internalType": "address",
          "name": "validator",
          "type": "address"
        },
        {
          "internalType": "address",
          "name": "delegator",
          "type": "address"
        },
        {
          "internalType": "uint256",
          "name": "amount",
          "type": "uint256"
        },
        {
          "internalType": "address",
          "name": "token",
          "type": "address"
        }
      ],
      "name": "autoUnbondEnqueue",
      "outputs": [],
      "stateMutability": "nonpayable",
      "type": "function"
    },
    {
      "inputs": [],
      "name": "autoUnbondQueueLength",
      "outputs": [
        {
          "internalType": "uint256",
          "name": "",
          "type": "uint256"
        }
      ],
      "stateMutability": "view",
      "type": "function"
    },
    {
      "inputs": [
        {
          "internalType": "address[]",
          "name": "validators",
          "type": "address[]"
        },
        {
          "internalType": "address[]",
          "name": "delegators",
          "type": "address[]"
        },
        {
          "internalType": "uint256[]",
          "name": "amounts",
          "type": "uint256[]"
        },
        {
          "internalType": "address[]",
          "name": "tokens",
          "type": "address[]"
        }
      ],
      "name": "changeStake",
      "outputs": [],
      "stateMutability": "nonpayable",
      "type": "function"
    },
    {
      "inputs": [
        {
          "internalType": "uint256[]",
          "name": "indexes",
          "type": "uint256[]"
        }
      ],
      "name": "complete",
      "outputs": [],
      "stateMutability": "nonpayable",
      "type": "function"
    },
    {
      "inputs": [
        {
          "internalType": "address",
          "name": "validator",
          "type": "address"
        },
        {
          "internalType": "address",
          "name": "token",
          "type": "address"
        },
        {
          "internalType": "uint256",
          "name": "amount",
          "type": "uint256"
        }
      ],
      "name": "delegate",
      "outputs": [],
      "stateMutability": "nonpayable",
      "type": "function"
    },
    {
      "inputs": [
        {
          "internalType": "address",
          "name": "validator",
          "type": "address"
        },
        {
          "internalType": "address",
          "name": "token",
          "type": "address"
        },
        {
          "internalType": "uint256",
          "name": "amount",
          "type": "uint256"
        },
        {
          "internalType": "uint256",
          "name": "deadline",
          "type": "uint256"
        },
        {
          "internalType": "uint8",
          "name": "v",
          "type": "uint8"
        },
        {
          "internalType": "bytes32",
          "name": "r",
          "type": "bytes32"
        },
        {
          "internalType": "bytes32",
          "name": "s",
          "type": "bytes32"
        }
      ],
      "name": "delegateByPermit",
      "outputs": [],
      "stateMutability": "nonpayable",
      "type": "function"
    },
    {
      "inputs": [
        {
          "internalType": "address",
          "name": "validator",
          "type": "address"
        }
      ],
      "name": "delegateDEL",
      "outputs": [],
      "stateMutability": "payable",
      "type": "function"
    },
    {
      "inputs": [
        {
          "internalType": "address",
          "name": "delegator",
          "type": "address"
        },
        {
          "internalType": "address",
          "name": "validator",
          "type": "address"
        }
      ],
      "name": "delegateDELTo",
      "outputs": [],
      "stateMutability": "payable",
      "type": "function"
    },
    {
      "inputs": [
        {
          "internalType": "address",
          "name": "validator",
          "type": "address"
        },
        {
          "internalType": "address",
          "name": "token",
          "type": "address"
        },
        {
          "internalType": "uint256",
          "name": "amount",
          "type": "uint256"
        },
        {
          "internalType": "uint256",
          "name": "holdTimestamp",
          "type": "uint256"
        }
      ],
      "name": "delegateHold",
      "outputs": [],
      "stateMutability": "nonpayable",
      "type": "function"
    },
    {
      "inputs": [
        {
          "internalType": "address",
          "name": "validator",
          "type": "address"
        },
        {
          "internalType": "address",
          "name": "token",
          "type": "address"
        },
        {
          "internalType": "uint256",
          "name": "amount",
          "type": "uint256"
        },
        {
          "internalType": "uint256",
          "name": "holdTimestamp",
          "type": "uint256"
        },
        {
          "internalType": "uint256",
          "name": "deadline",
          "type": "uint256"
        },
        {
          "internalType": "uint8",
          "name": "v",
          "type": "uint8"
        },
        {
          "internalType": "bytes32",
          "name": "r",
          "type": "bytes32"
        },
        {
          "internalType": "bytes32",
          "name": "s",
          "type": "bytes32"
        }
      ],
      "name": "delegateHoldByPermit",
      "outputs": [],
      "stateMutability": "nonpayable",
      "type": "function"
    },
    {
      "inputs": [
        {
          "internalType": "address",
          "name": "validator",
          "type": "address"
        },
        {
          "internalType": "uint256",
          "name": "holdTimestamp",
          "type": "uint256"
        }
      ],
      "name": "delegateHoldDEL",
      "outputs": [],
      "stateMutability": "payable",
      "type": "function"
    },
    {
      "inputs": [
        {
          "internalType": "address",
          "name": "delegator",
          "type": "address"
        },
        {
          "internalType": "address",
          "name": "validator",
          "type": "address"
        },
        {
          "internalType": "address",
          "name": "token",
          "type": "address"
        },
        {
          "internalType": "uint256",
          "name": "amount",
          "type": "uint256"
        }
      ],
      "name": "delegateTo",
      "outputs": [],
      "stateMutability": "nonpayable",
      "type": "function"
    },
    {
      "inputs": [
        {
          "internalType": "address",
          "name": "validator",
          "type": "address"
        },
        {
          "internalType": "address",
          "name": "delegator",
          "type": "address"
        },
        {
          "internalType": "uint256",
          "name": "amount",
          "type": "uint256"
        },
        {
          "internalType": "address",
          "name": "token",
          "type": "address"
        }
      ],
      "name": "forcedWithdrawal",
      "outputs": [],
      "stateMutability": "nonpayable",
      "type": "function"
    },
    {
      "inputs": [
        {
          "internalType": "address[]",
          "name": "validators",
          "type": "address[]"
        },
        {
          "internalType": "address[]",
          "name": "delegators",
          "type": "address[]"
        },
        {
          "internalType": "uint256[]",
          "name": "amounts",
          "type": "uint256[]"
        },
        {
          "internalType": "address[]",
          "name": "tokens",
          "type": "address[]"
        }
      ],
      "name": "forcedWithdrawalBatch",
      "outputs": [],
      "stateMutability": "nonpayable",
      "type": "function"
    },
    {
      "inputs": [
        {
          "internalType": "uint256",
          "name": "index",
          "type": "uint256"
        }
      ],
      "name": "getAutoUnbondEntry",
      "outputs": [
        {
          "components": [
            {
              "internalType": "address",
              "name": "validator",
              "type": "address"
            },
            {
              "internalType": "address",
              "name": "delegator",
              "type": "address"
            },
            {
              "internalType": "uint256",
              "name": "amount",
              "type": "uint256"
            },
            {
              "internalType": "address",
              "name": "token",
              "type": "address"
            },
            {
              "internalType": "uint256",
              "name": "holdTimestamp",
              "type": "uint256"
            }
          ],
          "internalType": "struct IDecimalDelegation.AutoUnbondEntry",
          "name": "",
          "type": "tuple"
        }
      ],
      "stateMutability": "view",
      "type": "function"
    },
    {
      "inputs": [],
      "name": "getContractCenter",
      "outputs": [
        {
          "internalType": "address",
          "name": "",
          "type": "address"
        }
      ],
      "stateMutability": "view",
      "type": "function"
    },
    {
      "inputs": [
        {
          "internalType": "enum IDecimalDelegationCommon.FreezeType",
          "name": "freezeType",
          "type": "uint8"
        }
      ],
      "name": "getFreezeTime",
      "outputs": [
        {
          "internalType": "uint256",
          "name": "",
          "type": "uint256"
        }
      ],
      "stateMutability": "view",
      "type": "function"
    },
    {
      "inputs": [
        {
          "internalType": "uint256",
          "name": "index",
          "type": "uint256"
        }
      ],
      "name": "getFrozenStake",
      "outputs": [
        {
          "components": [
            {
              "components": [
                {
                  "internalType": "address",
                  "name": "validator",
                  "type": "address"
                },
                {
                  "internalType": "address",
                  "name": "delegator",
                  "type": "address"
                },
                {
                  "internalType": "address",
                  "name": "token",
                  "type": "address"
                },
                {
                  "internalType": "uint256",
                  "name": "amount",
                  "type": "uint256"
                },
                {
                  "internalType": "uint256",
                  "name": "tokenId",
                  "type": "uint256"
                },
                {
                  "internalType": "enum IDecimalDelegationCommon.TokenType",
                  "name": "tokenType",
                  "type": "uint8"
                },
                {
                  "internalType": "uint256",
                  "name": "holdTimestamp",
                  "type": "uint256"
                }
              ],
              "internalType": "struct IDecimalDelegationCommon.Stake",
              "name": "stake",
              "type": "tuple"
            },
            {
              "internalType": "enum IDecimalDelegationCommon.FreezeStatus",
              "name": "freezeStatus",
              "type": "uint8"
            },
            {
              "internalType": "enum IDecimalDelegationCommon.FreezeType",
              "name": "freezeType",
              "type": "uint8"
            },
            {
              "internalType": "uint256",
              "name": "unfreezeTimestamp",
              "type": "uint256"
            }
          ],
          "internalType": "struct IDecimalDelegationCommon.FrozenStake",
          "name": "",
          "type": "tuple"
        }
      ],
      "stateMutability": "view",
      "type": "function"
    },
    {
      "inputs": [
        {
          "internalType": "uint256[]",
          "name": "stakeIndexes",
          "type": "uint256[]"
        }
      ],
      "name": "getFrozenStakes",
      "outputs": [
        {
          "components": [
            {
              "components": [
                {
                  "internalType": "address",
                  "name": "validator",
                  "type": "address"
                },
                {
                  "internalType": "address",
                  "name": "delegator",
                  "type": "address"
                },
                {
                  "internalType": "address",
                  "name": "token",
                  "type": "address"
                },
                {
                  "internalType": "uint256",
                  "name": "amount",
                  "type": "uint256"
                },
                {
                  "internalType": "uint256",
                  "name": "tokenId",
                  "type": "uint256"
                },
                {
                  "internalType": "enum IDecimalDelegationCommon.TokenType",
                  "name": "tokenType",
                  "type": "uint8"
                },
                {
                  "internalType": "uint256",
                  "name": "holdTimestamp",
                  "type": "uint256"
                }
              ],
              "internalType": "struct IDecimalDelegationCommon.Stake",
              "name": "stake",
              "type": "tuple"
            },
            {
              "internalType": "enum IDecimalDelegationCommon.FreezeStatus",
              "name": "freezeStatus",
              "type": "uint8"
            },
            {
              "internalType": "enum IDecimalDelegationCommon.FreezeType",
              "name": "freezeType",
              "type": "uint8"
            },
            {
              "internalType": "uint256",
              "name": "unfreezeTimestamp",
              "type": "uint256"
            }
          ],
          "internalType": "struct IDecimalDelegationCommon.FrozenStake[]",
          "name": "",
          "type": "tuple[]"
        }
      ],
      "stateMutability": "view",
      "type": "function"
    },
    {
      "inputs": [
        {
          "internalType": "address",
          "name": "validator",
          "type": "address"
        },
        {
          "internalType": "address",
          "name": "delegator",
          "type": "address"
        },
        {
          "internalType": "address",
          "name": "token",
          "type": "address"
        },
        {
          "internalType": "uint256",
          "name": "holdTimestamp",
          "type": "uint256"
        }
      ],
      "name": "getHoldStake",
      "outputs": [
        {
          "components": [
            {
              "internalType": "address",
              "name": "validator",
              "type": "address"
            },
            {
              "internalType": "address",
              "name": "delegator",
              "type": "address"
            },
            {
              "internalType": "address",
              "name": "token",
              "type": "address"
            },
            {
              "internalType": "uint256",
              "name": "amount",
              "type": "uint256"
            },
            {
              "internalType": "uint256",
              "name": "tokenId",
              "type": "uint256"
            },
            {
              "internalType": "enum IDecimalDelegationCommon.TokenType",
              "name": "tokenType",
              "type": "uint8"
            },
            {
              "internalType": "uint256",
              "name": "holdTimestamp",
              "type": "uint256"
            }
          ],
          "internalType": "struct IDecimalDelegationCommon.Stake",
          "name": "",
          "type": "tuple"
        }
      ],
      "stateMutability": "view",
      "type": "function"
    },
    {
      "inputs": [
        {
          "internalType": "address",
          "name": "validator",
          "type": "address"
        },
        {
          "internalType": "address",
          "name": "delegator",
          "type": "address"
        },
        {
          "internalType": "uint256",
          "name": "holdTimestamp",
          "type": "uint256"
        }
      ],
      "name": "getHoldStakeDEL",
      "outputs": [
        {
          "components": [
            {
              "internalType": "address",
              "name": "validator",
              "type": "address"
            },
            {
              "internalType": "address",
              "name": "delegator",
              "type": "address"
            },
            {
              "internalType": "address",
              "name": "token",
              "type": "address"
            },
            {
              "internalType": "uint256",
              "name": "amount",
              "type": "uint256"
            },
            {
              "internalType": "uint256",
              "name": "tokenId",
              "type": "uint256"
            },
            {
              "internalType": "enum IDecimalDelegationCommon.TokenType",
              "name": "tokenType",
              "type": "uint8"
            },
            {
              "internalType": "uint256",
              "name": "holdTimestamp",
              "type": "uint256"
            }
          ],
          "internalType": "struct IDecimalDelegationCommon.Stake",
          "name": "",
          "type": "tuple"
        }
      ],
      "stateMutability": "view",
      "type": "function"
    },
    {
      "inputs": [
        {
          "internalType": "address",
          "name": "validator",
          "type": "address"
        },
        {
          "internalType": "address",
          "name": "delegator",
          "type": "address"
        },
        {
          "internalType": "address",
          "name": "token",
          "type": "address"
        },
        {
          "internalType": "uint256",
          "name": "holdTimestamp",
          "type": "uint256"
        }
      ],
      "name": "getHoldStakeId",
      "outputs": [
        {
          "internalType": "bytes32",
          "name": "",
          "type": "bytes32"
        }
      ],
      "stateMutability": "pure",
      "type": "function"
    },
    {
      "inputs": [],
      "name": "getImpl",
      "outputs": [
        {
          "internalType": "address",
          "name": "",
          "type": "address"
        }
      ],
      "stateMutability": "view",
      "type": "function"
    },
    {
      "inputs": [
        {
          "internalType": "address",
          "name": "validator",
          "type": "address"
        },
        {
          "internalType": "address",
          "name": "delegator",
          "type": "address"
        },
        {
          "internalType": "address",
          "name": "token",
          "type": "address"
        }
      ],
      "name": "getStake",
      "outputs": [
        {
          "components": [
            {
              "internalType": "address",
              "name": "validator",
              "type": "address"
            },
            {
              "internalType": "address",
              "name": "delegator",
              "type": "address"
            },
            {
              "internalType": "address",
              "name": "token",
              "type": "address"
            },
            {
              "internalType": "uint256",
              "name": "amount",
              "type": "uint256"
            },
            {
              "internalType": "uint256",
              "name": "tokenId",
              "type": "uint256"
            },
            {
              "internalType": "enum IDecimalDelegationCommon.TokenType",
              "name": "tokenType",
              "type": "uint8"
            },
            {
              "internalType": "uint256",
              "name": "holdTimestamp",
              "type": "uint256"
            }
          ],
          "internalType": "struct IDecimalDelegationCommon.Stake",
          "name": "",
          "type": "tuple"
        }
      ],
      "stateMutability": "view",
      "type": "function"
    },
    {
      "inputs": [
        {
          "internalType": "address",
          "name": "validator",
          "type": "address"
        },
        {
          "internalType": "address",
          "name": "delegator",
          "type": "address"
        },
        {
          "internalType": "address",
          "name": "token",
          "type": "address"
        }
      ],
      "name": "getStakeId",
      "outputs": [
        {
          "internalType": "bytes32",
          "name": "",
          "type": "bytes32"
        }
      ],
      "stateMutability": "pure",
      "type": "function"
    },
    {
      "inputs": [
        {
          "internalType": "bytes32",
          "name": "stakeId",
          "type": "bytes32"
        }
      ],
      "name": "getStakePenaltyIndex",
      "outputs": [
        {
          "internalType": "uint256",
          "name": "",
          "type": "uint256"
        }
      ],
      "stateMutability": "view",
      "type": "function"
    },
    {
      "inputs": [
        {
          "internalType": "bytes32[]",
          "name": "stakeIds",
          "type": "bytes32[]"
        }
      ],
      "name": "getStakes",
      "outputs": [
        {
          "components": [
            {
              "internalType": "address",
              "name": "validator",
              "type": "address"
            },
            {
              "internalType": "address",
              "name": "delegator",
              "type": "address"
            },
            {
              "internalType": "address",
              "name": "token",
              "type": "address"
            },
            {
              "internalType": "uint256",
              "name": "amount",
              "type": "uint256"
            },
            {
              "internalType": "uint256",
              "name": "tokenId",
              "type": "uint256"
            },
            {
              "internalType": "enum IDecimalDelegationCommon.TokenType",
              "name": "tokenType",
              "type": "uint8"
            },
            {
              "internalType": "uint256",
              "name": "holdTimestamp",
              "type": "uint256"
            }
          ],
          "internalType": "struct IDecimalDelegationCommon.Stake[]",
          "name": "stakes",
          "type": "tuple[]"
        }
      ],
      "stateMutability": "view",
      "type": "function"
    },
    {
      "inputs": [
        {
          "internalType": "address",
          "name": "validator",
          "type": "address"
        },
        {
          "internalType": "address",
          "name": "token",
          "type": "address"
        }
      ],
      "name": "getValidatorReserve",
      "outputs": [
        {
          "components": [
            {
              "internalType": "uint256",
              "name": "penaltyIndex",
              "type": "uint256"
            },
            {
              "internalType": "uint256",
              "name": "reserve",
              "type": "uint256"
            }
          ],
          "internalType": "struct IDecimalDelegationCommon.ValidatorReserve",
          "name": "",
          "type": "tuple"
        }
      ],
      "stateMutability": "view",
      "type": "function"
    },
    {
      "inputs": [
        {
          "internalType": "address",
          "name": "validator",
          "type": "address"
        },
        {
          "internalType": "address",
          "name": "token",
          "type": "address"
        },
        {
          "internalType": "uint256",
          "name": "amountToHold",
          "type": "uint256"
        },
        {
          "internalType": "uint256",
          "name": "",
          "type": "uint256"
        },
        {
          "internalType": "uint256",
          "name": "newHoldTimestamp",
          "type": "uint256"
        }
      ],
      "name": "hold",
      "outputs": [],
      "stateMutability": "nonpayable",
      "type": "function"
    },
    {
      "inputs": [
        {
          "internalType": "address",
          "name": "validator",
          "type": "address"
        },
        {
          "internalType": "address",
          "name": "token",
          "type": "address"
        },
        {
          "internalType": "uint256",
          "name": "amountToHold",
          "type": "uint256"
        },
        {
          "internalType": "uint256",
          "name": "newHoldTimestamp",
          "type": "uint256"
        },
        {
          "internalType": "uint256[]",
          "name": "holdTimestampsToReset",
          "type": "uint256[]"
        }
      ],
      "name": "holdWithReset",
      "outputs": [],
      "stateMutability": "nonpayable",
      "type": "function"
    },
    {
      "inputs": [
        {
          "internalType": "address[]",
          "name": "validators",
          "type": "address[]"
        },
        {
          "internalType": "address[]",
          "name": "oldDelegators",
          "type": "address[]"
        },
        {
          "internalType": "address[]",
          "name": "newDelegators",
          "type": "address[]"
        },
        {
          "internalType": "address[]",
          "name": "tokens",
          "type": "address[]"
        }
      ],
      "name": "migrateStakes",
      "outputs": [],
      "stateMutability": "nonpayable",
      "type": "function"
    },
    {
      "inputs": [],
      "name": "owner",
      "outputs": [
        {
          "internalType": "address",
          "name": "",
          "type": "address"
        }
      ],
      "stateMutability": "view",
      "type": "function"
    },
    {
      "inputs": [],
      "name": "pause",
      "outputs": [],
      "stateMutability": "nonpayable",
      "type": "function"
    },
    {
      "inputs": [],
      "name": "paused",
      "outputs": [
        {
          "internalType": "bool",
          "name": "",
          "type": "bool"
        }
      ],
      "stateMutability": "view",
      "type": "function"
    },
    {
      "inputs": [
        {
          "internalType": "uint256",
          "name": "index",
          "type": "uint256"
        }
      ],
      "name": "processAutoUnbond",
      "outputs": [],
      "stateMutability": "nonpayable",
      "type": "function"
    },
    {
      "inputs": [],
      "name": "renounceOwnership",
      "outputs": [],
      "stateMutability": "nonpayable",
      "type": "function"
    },
    {
      "inputs": [
        {
          "internalType": "address",
          "name": "validator",
          "type": "address"
        },
        {
          "internalType": "address",
          "name": "delegator",
          "type": "address"
        },
        {
          "internalType": "address",
          "name": "token",
          "type": "address"
        },
        {
          "internalType": "uint256",
          "name": "holdTimestamp",
          "type": "uint256"
        }
      ],
      "name": "resetHold",
      "outputs": [],
      "stateMutability": "nonpayable",
      "type": "function"
    },
    {
      "inputs": [
        {
          "internalType": "address",
          "name": "validator",
          "type": "address"
        },
        {
          "internalType": "address",
          "name": "delegator",
          "type": "address"
        },
        {
          "internalType": "address",
          "name": "token",
          "type": "address"
        },
        {
          "internalType": "uint256[]",
          "name": "holdTimestamps",
          "type": "uint256[]"
        }
      ],
      "name": "resetHolds",
      "outputs": [],
      "stateMutability": "nonpayable",
      "type": "function"
    },
    {
      "inputs": [
        {
          "internalType": "address",
          "name": "contractCenter",
          "type": "address"
        }
      ],
      "name": "setContractCenter",
      "outputs": [],
      "stateMutability": "nonpayable",
      "type": "function"
    },
    {
      "inputs": [
        {
          "internalType": "uint256",
          "name": "withdrawFreezeTime",
          "type": "uint256"
        },
        {
          "internalType": "uint256",
          "name": "transferFreezeTime",
          "type": "uint256"
        }
      ],
      "name": "setFreezeTime",
      "outputs": [],
      "stateMutability": "nonpayable",
      "type": "function"
    },
    {
      "inputs": [
        {
          "internalType": "address",
          "name": "validator",
          "type": "address"
        },
        {
          "internalType": "address",
          "name": "token",
          "type": "address"
        },
        {
          "internalType": "uint256",
          "name": "amount",
          "type": "uint256"
        },
        {
          "internalType": "address",
          "name": "newValidator",
          "type": "address"
        }
      ],
      "name": "transfer",
      "outputs": [],
      "stateMutability": "nonpayable",
      "type": "function"
    },
    {
      "inputs": [
        {
          "internalType": "address",
          "name": "validator",
          "type": "address"
        },
        {
          "internalType": "address",
          "name": "token",
          "type": "address"
        },
        {
          "internalType": "uint256",
          "name": "amount",
          "type": "uint256"
        },
        {
          "internalType": "uint256",
          "name": "holdTimestamp",
          "type": "uint256"
        },
        {
          "internalType": "address",
          "name": "newValidator",
          "type": "address"
        }
      ],
      "name": "transferHold",
      "outputs": [],
      "stateMutability": "nonpayable",
      "type": "function"
    },
    {
      "inputs": [
        {
          "internalType": "address",
          "name": "newOwner",
          "type": "address"
        }
      ],
      "name": "transferOwnership",
      "outputs": [],
      "stateMutability": "nonpayable",
      "type": "function"
    },
    {
      "inputs": [
        {
          "internalType": "address",
          "name": "oldValidator",
          "type": "address"
        },
        {
          "internalType": "address",
          "name": "token",
          "type": "address"
        },
        {
          "internalType": "uint256",
          "name": "amount",
          "type": "uint256"
        },
        {
          "internalType": "address",
          "name": "newValidator",
          "type": "address"
        },
        {
          "internalType": "uint256[]",
          "name": "holdTimestampsToReset",
          "type": "uint256[]"
        }
      ],
      "name": "transferWithReset",
      "outputs": [],
      "stateMutability": "nonpayable",
      "type": "function"
    },
    {
      "inputs": [],
      "name": "unpause",
      "outputs": [],
      "stateMutability": "nonpayable",
      "type": "function"
    },
    {
      "inputs": [
        {
          "internalType": "address",
          "name": "newImpl",
          "type": "address"
        },
        {
          "internalType": "bytes",
          "name": "data",
          "type": "bytes"
        }
      ],
      "name": "upgrade",
      "outputs": [],
      "stateMutability": "nonpayable",
      "type": "function"
    },
    {
      "inputs": [
        {
          "internalType": "address",
          "name": "validator",
          "type": "address"
        },
        {
          "internalType": "address",
          "name": "token",
          "type": "address"
        },
        {
          "internalType": "uint256",
          "name": "amount",
          "type": "uint256"
        }
      ],
      "name": "withdraw",
      "outputs": [],
      "stateMutability": "nonpayable",
      "type": "function"
    },
    {
      "inputs": [
        {
          "internalType": "address",
          "name": "validator",
          "type": "address"
        },
        {
          "internalType": "address",
          "name": "token",
          "type": "address"
        },
        {
          "internalType": "uint256",
          "name": "amount",
          "type": "uint256"
        },
        {
          "internalType": "uint256",
          "name": "holdTimestamp",
          "type": "uint256"
        }
      ],
      "name": "withdrawHold",
      "outputs": [],
      "stateMutability": "nonpayable",
      "type": "function"
    },
    {
      "inputs": [
        {
          "internalType": "address",
          "name": "validator",
          "type": "address"
        },
        {
          "internalType": "address",
          "name": "token",
          "type": "address"
        },
        {
          "internalType": "uint256",
          "name": "amount",
          "type": "uint256"
        },
        {
          "internalType": "uint256[]",
          "name": "holdTimestampsToReset",
          "type": "uint256[]"
        }
      ],
      "name": "withdrawWithReset",
      "outputs": [],
      "stateMutability": "nonpayable",
      "type": "function"
    },
    {
      "stateMutability": "payable",
      "type": "receive"
    }
  ],
  "bytecode": "0x608060405234801561001057600080fd5b506001600055615abe80620000266000396000f3fe6080604052600436106103035760003560e01c80638c57061a11610190578063c26f3acf116100dc578063dfb8083111610095578063f2fde38b1161006f578063f2fde38b14610967578063f7b0e76f14610987578063f9ce7813146109a7578063fc94ffba146109c757600080fd5b8063dfb80831146108f8578063e54c8f7e1461090d578063e63766141461092d57600080fd5b8063c26f3acf14610838578063c51c4c7c14610858578063c987336c14610878578063cc5e550014610898578063d8f06a8f146108ab578063d9caed12146108d857600080fd5b8063a1d7635111610149578063b71c52bd11610123578063b71c52bd146107c3578063b8c73987146107e3578063ba778bce14610803578063bbcb21d51461081857600080fd5b8063a1d763511461076e578063a5a6977e1461078e578063ad5c4648146107ae57600080fd5b80638c57061a1461068a5780638da5cb5b146106aa57806396184ad5146106fb57806396b4ba5e1461071b5780639d65bf411461073b5780639e0f4c7c1461075b57600080fd5b80633f4ba83a1161024f57806368b049d911610208578063722c76f8116101e2578063722c76f8146106065780637cef101a146106335780638456cb591461065557806388e9023d1461066a57600080fd5b806368b049d9146105b1578063713ec4ac146105d1578063715018a6146105f157600080fd5b80633f4ba83a146104ec57806340bbbd6d146105015780635c975abb146105215780635d518866146105515780635d95f94f146105715780635fb599d41461059157600080fd5b80631996c40a116102bc5780632d9473ea116102965780632d9473ea146104515780632dbfa4bb14610464578063330b5c45146104845780633d249faa146104bf57600080fd5b80631996c40a146103e4578063226f6ea2146104045780632c1b15f41461043157600080fd5b8063096fcf771461030f5780630e08def314610331578063108b2ccf146103645780631103c5dc14610384578063124ffa81146103a45780631418cb93146103c457600080fd5b3661030a57005b600080fd5b34801561031b57600080fd5b5061032f61032a366004614be2565b610a34565b005b34801561033d57600080fd5b5061035161034c366004614c8e565b610b50565b6040519081526020015b60405180910390f35b34801561037057600080fd5b5061032f61037f366004614caf565b610bad565b34801561039057600080fd5b5061035161039f366004614d0e565b610bc5565b3480156103b057600080fd5b5061032f6103bf366004614d59565b610bdf565b3480156103d057600080fd5b5061032f6103df366004614db5565b610bfd565b3480156103f057600080fd5b5061032f6103ff366004614e23565b610c1f565b34801561041057600080fd5b5061042461041f366004614ef2565b610cb0565b60405161035b9190615004565b34801561043d57600080fd5b5061032f61044c366004615052565b610cc1565b61032f61045f3660046150a3565b610cd8565b34801561047057600080fd5b5061032f61047f3660046150dc565b610cf2565b34801561049057600080fd5b506104a461049f3660046150a3565b610d0b565b6040805182518152602092830151928101929092520161035b565b3480156104cb57600080fd5b506104df6104da366004615052565b610d4b565b60405161035b919061512d565b3480156104f857600080fd5b5061032f610dfa565b34801561050d57600080fd5b5061032f61051c366004614d59565b610e0c565b34801561052d57600080fd5b50600080516020615a098339815191525460ff16604051901515815260200161035b565b34801561055d57600080fd5b506104df61056c366004614d0e565b610e4b565b34801561057d57600080fd5b5061032f61058c36600461513b565b610ef2565b34801561059d57600080fd5b5061032f6105ac36600461516f565b610f92565b3480156105bd57600080fd5b506103516105cc366004615052565b610fcc565b3480156105dd57600080fd5b5061032f6105ec36600461518c565b610fe5565b3480156105fd57600080fd5b5061032f61102b565b34801561061257600080fd5b5061062661062136600461513b565b61103d565b60405161035b9190615251565b34801561063f57600080fd5b506000805160206159a983398151915254610351565b34801561066157600080fd5b5061032f611101565b34801561067657600080fd5b506104df610685366004615294565b611111565b34801561069657600080fd5b5061032f6106a53660046152d5565b611131565b3480156106b657600080fd5b507f9016d09d72d40fdae2fd8ceac6b6234c7706214fd39c1cd1e609a0528c199300546001600160a01b03165b6040516001600160a01b03909116815260200161035b565b34801561070757600080fd5b5061032f61071636600461533d565b611148565b34801561072757600080fd5b5061032f610736366004615390565b61115f565b34801561074757600080fd5b5061032f610756366004615405565b611177565b61032f61076936600461546a565b61118f565b34801561077a57600080fd5b5061032f610789366004615496565b6111c6565b34801561079a57600080fd5b5061032f6107a93660046154e9565b611348565b3480156107ba57600080fd5b506106e361161c565b3480156107cf57600080fd5b5061032f6107de366004615566565b611648565b3480156107ef57600080fd5b5061032f6107fe366004614be2565b611662565b34801561080f57600080fd5b506106e361185e565b34801561082457600080fd5b5061032f610833366004615052565b61187f565b34801561084457600080fd5b5061032f610853366004615294565b6118d9565b34801561086457600080fd5b5061032f610873366004614ef2565b6118f0565b34801561088457600080fd5b5061032f610893366004615588565b611943565b61032f6108a636600461516f565b611955565b3480156108b757600080fd5b506108cb6108c636600461562f565b61196c565b60405161035b9190615648565b3480156108e457600080fd5b5061032f6108f3366004615294565b611ab7565b34801561090457600080fd5b506106e3611acf565b34801561091957600080fd5b5061032f61092836600461562f565b611ad9565b34801561093957600080fd5b5061035161094836600461562f565b60009081526000805160206159c9833981519152602052604090205490565b34801561097357600080fd5b5061032f61098236600461516f565b611d1a565b34801561099357600080fd5b5061032f6109a2366004615496565b611d55565b3480156109b357600080fd5b5061032f6109c2366004615496565b611dc3565b3480156109d357600080fd5b506109e76109e236600461562f565b611ddc565b60405161035b919081516001600160a01b03908116825260208084015182169083015260408084015190830152606080840151909116908201526080918201519181019190915260a00190565b610a3c611ed0565b6040516000198152600080516020615a498339815191529060200160405180910390a18351835181148015610a715750808351145b8015610a7d5750808251145b610aa25760405162461bcd60e51b8152600401610a9990615657565b60405180910390fd5b60005b81811015610b48576000868281518110610ac157610ac1615686565b602002602001015190506000868381518110610adf57610adf615686565b602002602001015190506000868481518110610afd57610afd615686565b602002602001015190506000868581518110610b1b57610b1b615686565b60200260200101519050610b3184848484611f2b565b505050508080610b40906156b2565b915050610aa5565b505050505050565b60007fc1dae510251b57b62087f142cc8746564a134308f8810580b66b08a29b6def0481836002811115610b8657610b86614f82565b6002811115610b9757610b97614f82565b8152602001908152602001600020549050919050565b610bb5612187565b6000610b488686838787876121b8565b6000610bd5848484600080612477565b90505b9392505050565b610be7612187565b6000610bf685858386866124dc565b5050505050565b610c05612187565b610c16878787600088888888612757565b50505050505050565b610c27612187565b6000805b8251811015610c8d576000838281518110610c4857610c48615686565b602002602001015190506000610c6b82600001518360200151846040015161280e565b90508015610c7857600193505b50610c8690506001826156cb565b9050610c2b565b5080610cac576040516326f4f9d960e01b815260040160405180910390fd5b5050565b6060610cbb82612953565b92915050565b610cc9612187565b6000610bf68585858585612a9c565b610ce0612187565b6000610ced838383612b44565b505050565b610cfa612187565b600080610c16878784888588612c46565b6040805180820190915260008082526020820152610d2b83836000612dfd565b604080518082019091528154815260019091015460208201529392505050565b610d53614a09565b610d67610d6286868686610fcc565b612e9a565b6040805160e08101825282546001600160a01b03908116825260018401548116602083015260028401541691810191909152600382015460608201526004808301546080830152600583015491929160a084019160ff90911690811115610dd057610dd0614f82565b6004811115610de157610de1614f82565b815260200160068201548152505090505b949350505050565b610e02611ed0565b610e0a612eca565b565b610e14612187565b80600003610e385760405163270ca01d60e01b815260006004820152602401610a99565b610e453385858585612a9c565b50505050565b610e53614a09565b610e61610d62858585610bc5565b6040805160e08101825282546001600160a01b03908116825260018401548116602083015260028401541691810191909152600382015460608201526004808301546080830152600583015491929160a084019160ff90911690811115610eca57610eca614f82565b6004811115610edb57610edb614f82565b815260200160068201548152505090509392505050565b610efa612187565b60005b8151811015610cac576000828281518110610f1a57610f1a615686565b602002602001015190506000610f2f8261196c565b9050600181604001516002811115610f4957610f49614f82565b03610f5757610f5782612f2a565b600281604001516002811115610f6f57610f6f614f82565b03610f7d57610f7d826131cf565b50508080610f8a906156b2565b915050610efd565b610f9a611ed0565b80600080516020615a698339815191525b80546001600160a01b0319166001600160a01b039290921691909117905550565b6000610fdc858585600086612477565b95945050505050565b610fed612187565b846000036110115760405163270ca01d60e01b815260006004820152602401610a99565b6110218888888888888888612757565b5050505050505050565b611033611ed0565b610e0a6000613346565b6060600082516001600160401b0381111561105a5761105a614a6d565b60405190808252806020026020018201604052801561109357816020015b611080614a47565b8152602001906001900390816110785790505b50905060005b83518110156110fa5760008482815181106110b6576110b6615686565b602002602001015190506110c98161196c565b8383815181106110db576110db615686565b60200260200101819052505080806110f2906156b2565b915050611099565b5092915050565b611109611ed0565b610e0a6133b7565b611119614a09565b600061112361161c565b9050610fdc85858386610d4b565b611139612187565b6000610bf68585858486613400565b611150612187565b6000610bf68585838686613604565b611167612187565b6000610b48868683878787613620565b61117f612187565b6000610b4886868387878761363c565b611197612187565b806000036111bb5760405163270ca01d60e01b815260006004820152602401610a99565b610cac338383612b44565b33156112055760405162461bcd60e51b815260206004820152600e60248201526d139bdd08185d5d1a1bdc9a5e995960921b6044820152606401610a99565b6040805160a0810182526001600160a01b03958616815293851660208501908152908401928352908416606084019081526000608085018181526000805160206159a98339815191528054600181018255925294517f533b2fb51e7a6a41602e928cd5daf15aa3f59d6ed21b02f8d85c450b246df39d600590920291820180549188166001600160a01b031992831617905592517f533b2fb51e7a6a41602e928cd5daf15aa3f59d6ed21b02f8d85c450b246df39e8201805491881691851691909117905592517f533b2fb51e7a6a41602e928cd5daf15aa3f59d6ed21b02f8d85c450b246df39f840155517f533b2fb51e7a6a41602e928cd5daf15aa3f59d6ed21b02f8d85c450b246df3a08301805491909516911617909255517f533b2fb51e7a6a41602e928cd5daf15aa3f59d6ed21b02f8d85c450b246df3a190910155565b611350611ed0565b6040516000198152600080516020615a498339815191529060200160405180910390a183518351811480156113855750808351145b80156113915750808251145b6113ad5760405162461bcd60e51b8152600401610a9990615657565b60005b81811015610b485760008682815181106113cc576113cc615686565b6020026020010151905060008683815181106113ea576113ea615686565b60200260200101519050600086848151811061140857611408615686565b60200260200101519050600086858151811061142657611426615686565b602002602001015190506000611440858584600080612477565b9050600061144d82612e9a565b6003810154909150806114975760405162461bcd60e51b81526020600482015260126024820152714f6c64207374616b6520697320656d70747960701b6044820152606401610a99565b60058201546000600384015560ff166000805160206159e9833981519152846114bf81612e9a565b60006040516114d0939291906156de565b60405180910390a160006114e8898888600080612477565b905060006114f582612e9a565b60038101549091501580156115b35781546001600160a01b03808d166001600160a01b0319928316178455600180850180548d8416908516179055600285018054928c16929093169190911790915560006004808501919091556005840180548793919260ff199091169190849081111561157257611572614f82565b0217905550600060068301819055600383018690556115908c613659565b5160008581526000805160206159c98339815191526020526040902055506115cd565b848260030160008282546115c791906156cb565b90915550505b6000805160206159e9833981519152836115e685612e9a565b836040516115f6939291906156de565b60405180910390a150505050505050505050508080611614906156b2565b9150506113b0565b6000611643604051806040016040528060048152602001631dd9195b60e21b8152506136d3565b905090565b611650611ed0565b611658612187565b610cac8282613752565b61166a611ed0565b6040516000198152600080516020615a498339815191529060200160405180910390a1835183518114801561169f5750808351145b80156116ab5750808251145b6116c75760405162461bcd60e51b8152600401610a9990615657565b60005b81811015610b485760008682815181106116e6576116e6615686565b60200260200101519050600086838151811061170457611704615686565b60200260200101519050600086848151811061172257611722615686565b60200260200101519050600086858151811061174057611740615686565b60200260200101519050600060019050611775604051806040016040528060048152602001631dd9195b60e21b8152506136d3565b6001600160a01b0316826001600160a01b031603611791575060045b60006117fc6040518060e00160405280886001600160a01b03168152602001876001600160a01b03168152602001856001600160a01b03168152602001868152602001600081526020018460048111156117ed576117ed614f82565b81526020016000815250613812565b9050600061180982612e9a565b6003810186905590506000805160206159e98339815191528261182b81612e9a565b600060405161183c939291906156de565b60405180910390a1505050505050508080611856906156b2565b9150506116ca565b6000600080516020615a698339815191525b546001600160a01b0316919050565b611887612187565b6040805160018082528183019092526000918291906020808301908036833701905050905082816000815181106118c0576118c0615686565b602002602001018181525050610b488686868585613400565b6118e1612187565b6000610e453385858585612a9c565b6118f8612187565b6000805b8251811015610c8d5761192783828151811061191a5761191a615686565b6020026020010151613835565b8061192f5750815b915061193c6001826156cb565b90506118fc565b61194b611ed0565b610cac82826139e7565b61195d612187565b61196933826000612b44565b50565b611974614a47565b600080516020615a2983398151915280548390811061199557611995615686565b6000918252602090912060408051610160810190915260099092020180546001600160a01b03908116608084019081526001830154821660a0850152600283015490911660c0840152600382015460e08401526004808301546101008501526005830154849291849161012085019160ff90911690811115611a1957611a19614f82565b6004811115611a2a57611a2a614f82565b815260069190910154602091820152908252600783015491019060ff166001811115611a5857611a58614f82565b6001811115611a6957611a69614f82565b81526020016007820160019054906101000a900460ff166002811115611a9157611a91614f82565b6002811115611aa257611aa2614f82565b81526020016008820154815250509050919050565b611abf612187565b600080610bf685858486856124dc565b6000611643613a3d565b6000805160206159a98339815191528054808310611b295760405162461bcd60e51b815260206004820152600d60248201526c092dcecc2d8d2c840d2dcc8caf609b1b6044820152606401610a99565b6000826000018481548110611b4057611b40615686565b60009182526020918290206040805160a081018252600590930290910180546001600160a01b039081168452600182015481169484019490945260028101549183019190915260038101549092166060820152600490910154608082018190529091501580611bb25750428160800151105b611bf15760405162461bcd60e51b815260206004820152601060248201526f121bdb19081b9bdd08195e1c1a5c995960821b6044820152606401610a99565b82611bfd600184615752565b81548110611c0d57611c0d615686565b9060005260206000209060050201836000018581548110611c3057611c30615686565b60009182526020909120825460059092020180546001600160a01b039283166001600160a01b03199182161782556001808501549083018054918516918316919091179055600280850154908301556003808501549083018054919094169116179091556004918201549101558254839080611cae57611cae615765565b6000828152602080822060056000199094019384020180546001600160a01b031990811682556001820180548216905560028201849055600382018054909116905560040182905591909255825190830151606084015160408501516080860151610e45959190613a65565b611d22611ed0565b6001600160a01b038116611d4c57604051631e4fbdf760e01b815260006004820152602401610a99565b61196981613346565b3315611d945760405162461bcd60e51b815260206004820152600e60248201526d139bdd08185d5d1a1bdc9a5e995960921b6044820152606401610a99565b6040516000198152600080516020615a498339815191529060200160405180910390a1610e4584848484611f2b565b611dcb612187565b600080610b488686848785886121b8565b6040805160a0810182526000808252602082018190529181018290526060810182905260808101919091526000805160206159a983398151915280548310611e565760405162461bcd60e51b815260206004820152600d60248201526c092dcecc2d8d2c840d2dcc8caf609b1b6044820152606401610a99565b806000018381548110611e6b57611e6b615686565b60009182526020918290206040805160a081018252600590930290910180546001600160a01b03908116845260018201548116948401949094526002810154918301919091526003810154909216606082015260049091015460808201529392505050565b33611f027f9016d09d72d40fdae2fd8ceac6b6234c7706214fd39c1cd1e609a0528c199300546001600160a01b031690565b6001600160a01b031614610e0a5760405163118cdaa760e01b8152336004820152602401610a99565b6040805180820190915260048152631dd9195b60e21b6020820152600190611f52906136d3565b6001600160a01b0316826001600160a01b031603611f6e575060045b6000611fca6040518060e00160405280886001600160a01b03168152602001876001600160a01b03168152602001856001600160a01b03168152602001868152602001600081526020018460048111156117ed576117ed614f82565b90506000611fd782612e9a565b90508481600301541015611ffe5760405163162908e360e11b815260040160405180910390fd5b848160030160008282546120129190615752565b90915550612020905061161c565b60028201546001600160a01b0391821691160361212b5761203f61161c565b6001600160a01b0316632e1a7d4d866040518263ffffffff1660e01b815260040161206c91815260200190565b600060405180830381600087803b15801561208657600080fd5b505af115801561209a573d6000803e3d6000fd5b5050505060018101546040516000916001600160a01b03169087908381818185875af1925050503d80600081146120ed576040519150601f19603f3d011682016040523d82523d6000602084013e6120f2565b606091505b50509050806121255760018201546040516303d70c3d60e51b81526001600160a01b039091166004820152602401610a99565b5061214c565b6001810154600282015461214c916001600160a01b03918216911687613cf5565b6000805160206159e98339815191528261216584612e9a565b6000604051612176939291906156de565b60405180910390a150505050505050565b600080516020615a098339815191525460ff1615610e0a5760405163d93c066560e01b815260040160405180910390fd5b856001600160a01b0316816001600160a01b0316036121ea57604051631a0a9b9f60e21b815260040160405180910390fd5b6121f381613d54565b61221057604051631a0a9b9f60e21b815260040160405180910390fd5b600061221f8733888887612477565b9050600061222f82866002613de0565b80516001600160a01b03858116909152600080516020615a2983398151915280546001808201835560008390528451805160099093027fd2fb3e2d123acbd86bb5d1017bc7cc3c508609d57ffd5302ed22b358fcf459be810180546001600160a01b031990811695881695909517815560208301517fd2fb3e2d123acbd86bb5d1017bc7cc3c508609d57ffd5302ed22b358fcf459bf83018054871691891691909117905560408301517fd2fb3e2d123acbd86bb5d1017bc7cc3c508609d57ffd5302ed22b358fcf459c08301805490961697169690961790935560608101517fd2fb3e2d123acbd86bb5d1017bc7cc3c508609d57ffd5302ed22b358fcf459c184015560808101517fd2fb3e2d123acbd86bb5d1017bc7cc3c508609d57ffd5302ed22b358fcf459c284015560a08101517fd2fb3e2d123acbd86bb5d1017bc7cc3c508609d57ffd5302ed22b358fcf459c3909301805496975093958795949193859390929160ff1916908360048111156123ad576123ad614f82565b021790555060c09190910151600690910155602082015160078201805460ff1916600183818111156123e1576123e1614f82565b0217905550604082015160078201805461ff00191661010083600281111561240b5761240b614f82565b021790555060609190910151600890910155805460009061242e90600190615752565b90507f82483dd4ee8f4c0625f25624d8973d4bc4d9bca5110e002425f5ffe8aed3f44f8482856040516124639392919061577b565b60405180910390a150505050505050505050565b6040516bffffffffffffffffffffffff19606087811b8216602084015286811b8216603484015285901b166048820152605c8101839052607c8101829052600090609c0160405160208183030381529060405280519060200120905095945050505050565b60008115806124ea57504282105b90508061251357604051632ba8311760e21b815260048101839052426024820152604401610a99565b60006125228733888887612477565b9050600061253282866001613de0565b600080516020615a2983398151915280546001808201835560008390528351805160099093027fd2fb3e2d123acbd86bb5d1017bc7cc3c508609d57ffd5302ed22b358fcf459be810180546001600160a01b039586166001600160a01b031991821617825560208401517fd2fb3e2d123acbd86bb5d1017bc7cc3c508609d57ffd5302ed22b358fcf459bf8401805491881691831691909117905560408401517fd2fb3e2d123acbd86bb5d1017bc7cc3c508609d57ffd5302ed22b358fcf459c0840180549190971691161790945560608201517fd2fb3e2d123acbd86bb5d1017bc7cc3c508609d57ffd5302ed22b358fcf459c182015560808201517fd2fb3e2d123acbd86bb5d1017bc7cc3c508609d57ffd5302ed22b358fcf459c282015560a08201517fd2fb3e2d123acbd86bb5d1017bc7cc3c508609d57ffd5302ed22b358fcf459c3909101805496975094958795929385939160ff1916908360048111156126a1576126a1614f82565b021790555060c09190910151600690910155602082015160078201805460ff1916600183818111156126d5576126d5614f82565b0217905550604082015160078201805461ff0019166101008360028111156126ff576126ff614f82565b021790555060609190910151600890910155805460009061272290600190615752565b90507fa7d58a1e25d2fea28ca76b72e922e949d2592d46feda6df44d1f9f801071c6ab8482856040516124639392919061577b565b61276088613d54565b61277d57604051631a0a9b9f60e21b815260040160405180910390fd5b60405163d505accf60e01b8152336004820152306024820152604481018790526064810185905260ff8416608482015260a4810183905260c481018290526001600160a01b0388169063d505accf9060e401600060405180830381600087803b1580156127e957600080fd5b505af11580156127fd573d6000803e3d6000fd5b505050506110213389898989612a9c565b60008061281a85613659565b905060008061282a878784612dfd565b600181015481548551929350909181148080612844575082155b8061284e57508551155b156128625760009650505050505050610bd8565b855182101561293b5760006128908488858151811061288357612883615686565b6020026020010151613f66565b905061289c8a82613f82565b60006128a661161c565b6001600160a01b03168b6001600160a01b03161490506000816128ca5760016128cd565b60045b90508c6001600160a01b03167f2c66dd9ea13b717388ea37b7e6d005c7ee30f313f8a752ed6e2613069534827a8d838b8988604051612910959493929190615797565b60405180910390a26129228387615752565b955050505060018261293491906156cb565b9150612862565b50509251815560019081019290925550949350505050565b606081516001600160401b0381111561296e5761296e614a6d565b6040519080825280602002602001820160405280156129a757816020015b612994614a09565b81526020019060019003908161298c5790505b50905060005b8251811015612a965760008382815181106129ca576129ca615686565b602002602001015190506129dd81612e9a565b6040805160e08101825282546001600160a01b03908116825260018401548116602083015260028401541691810191909152600382015460608201526004808301546080830152600583015491929160a084019160ff90911690811115612a4657612a46614f82565b6004811115612a5757612a57614f82565b8152602001600682015481525050838381518110612a7757612a77615686565b6020026020010181905250508080612a8e906156b2565b9150506129ad565b50919050565b612aa584613d54565b612ac257604051631a0a9b9f60e21b815260040160405180910390fd5b60006040518060e00160405280866001600160a01b03168152602001876001600160a01b03168152602001856001600160a01b031681526020018481526020016000815260200160016004811115612b1c57612b1c614f82565b81526020018390529050612b2f81614074565b610b486001600160a01b03851633308661421d565b612b4d82613d54565b612b6a57604051631a0a9b9f60e21b815260040160405180910390fd5b346000612b7561161c565b905060006040518060e00160405280866001600160a01b03168152602001876001600160a01b03168152602001836001600160a01b0316815260200184815260200160008152602001600480811115612bd057612bd0614f82565b81526020018590529050612be381614074565b612beb61161c565b6001600160a01b031663d0e30db0846040518263ffffffff1660e01b81526004016000604051808303818588803b158015612c2557600080fd5b505af1158015612c39573d6000803e3d6000fd5b5050505050505050505050565b8015428211158180612c555750805b15612c735760405163b7d0949760e01b815260040160405180910390fd5b600080612c838a338b8b86612477565b9050612c8e81614256565b5060006040518060e001604052808c6001600160a01b03168152602001336001600160a01b031681526020018b6001600160a01b031681526020018981526020018a8152602001612cde84612e9a565b6005015460ff166004811115612cf657612cf6614f82565b815260200187905290506000612d0e610d6283613812565b6040805160e08101825282546001600160a01b03908116825260018401548116602083015260028401541691810191909152600382015460608201526004808301546080830152600583015491929160a084019160ff90911690811115612d7757612d77614f82565b6004811115612d8857612d88614f82565b815260069190910154602090910152606081015190915015612daa848b614323565b612db383614074565b7fa0a8b22bc7aca2e71ba792f9390bbc1875d1fa8b0d9a82c0158f96c7f4b89cdb848483604051612de6939291906157d0565b60405180910390a150505050505050505050505050565b600080612e4c84846040516bffffffffffffffffffffffff19606084901b1660208201526034810182905260009060540160405160208183030381529060405280519060200120905092915050565b6001600160a01b039590951660009081527fc1dae510251b57b62087f142cc8746564a134308f8810580b66b08a29b6def056020908152604080832097835296905294909420949350505050565b60009081527fc1dae510251b57b62087f142cc8746564a134308f8810580b66b08a29b6def016020526040902090565b612ed261449d565b600080516020615a09833981519152805460ff191681557f5db9ee0a495bf2e6ff9c91a7834c1ba4fdd244a5e8aa4e537bd38aeae4b073aa335b6040516001600160a01b03909116815260200160405180910390a150565b612f326144cd565b600080516020615a298339815191528054600080516020615a698339815191529160009184908110612f6657612f66615686565b90600052602060002090600902019050612f8381600801546144f7565b6000600782015460ff166001811115612f9e57612f9e614f82565b03612fbc57604051633fe4f64f60e01b815260040160405180910390fd5b60078101805460ff191690556040805160e08101825282546001600160a01b03908116825260018401548116602083015260028401541691810191909152600382015460608201526004808301546080830152600583015460009291849160a084019160ff9091169081111561303457613034614f82565b600481111561304557613045614f82565b8152602001600682015481525050905061305d61161c565b6001600160a01b031681604001516001600160a01b0316036131775761308161161c565b6001600160a01b0316632e1a7d4d82606001516040518263ffffffff1660e01b81526004016130b291815260200190565b600060405180830381600087803b1580156130cc57600080fd5b505af11580156130e0573d6000803e3d6000fd5b50505050600081602001516001600160a01b0316826060015160405160006040518083038185875af1925050503d8060008114613139576040519150601f19603f3d011682016040523d82523d6000602084013e61313e565b606091505b50509050806131715760208201516040516303d70c3d60e51b81526001600160a01b039091166004820152602401610a99565b506131a1565b6131a18160200151826060015183604001516001600160a01b0316613cf59092919063ffffffff16565b604051848152600080516020615a498339815191529060200160405180910390a15050506119696001600055565b600080516020615a298339815191528054600080516020615a69833981519152916000918490811061320357613203615686565b9060005260206000209060090201905061322081600801546144f7565b6000600782015460ff16600181111561323b5761323b614f82565b0361325957604051633fe4f64f60e01b815260040160405180910390fd5b60078101805460ff191690556006810154421080159061327b57600060068301555b6040805160e08101825283546001600160a01b03908116825260018501548116602083015260028501541691810191909152600383015460608201526004808401546080830152600584015461330c9291859160a084019160ff909116908111156132e8576132e8614f82565b60048111156132f9576132f9614f82565b8152602001600682015481525050614074565b6040518481527ffd987fd5c7de5139db194fdde15ddabcec1b78c3bfc832ad563ac57a9bfa9b36906020015b60405180910390a150505050565b7f9016d09d72d40fdae2fd8ceac6b6234c7706214fd39c1cd1e609a0528c19930080546001600160a01b031981166001600160a01b03848116918217845560405192169182907f8be0079c531659141344cd1fd0a4f28419497f9722a3daafe3b4186f6b6457e090600090a3505050565b6133bf612187565b600080516020615a09833981519152805460ff191660011781557f62e78cea01bee320cd4e420270b5ea74000d11b0c9f74754ebdbfc544b05a25833612f0c565b613408614a09565b60005b82518110156135fa57600083828151811061342857613428615686565b6020026020010151905060006134418989898986612477565b905061344c81614256565b50600061345882612e9a565b6040805160e08101825282546001600160a01b03908116825260018401548116602083015260028401541691810191909152600382015460608201526004808301546080830152600583015491929160a084019160ff909116908111156134c1576134c1614f82565b60048111156134d2576134d2614f82565b81526020016006820154815250509050806060015160000361350757604051630217669b60e31b815260040160405180910390fd5b8060c00151600003613534578060c0015160405163270ca01d60e01b8152600401610a9991815260200190565b60c0810151421015806135695760c0820151604051632ba8311760e21b81526004810191909152426024820152604401610a99565b613577838360600151614323565b7f0a825640f097d14edca3b473a8fa6e574cd5f56933823f4ba0114a2bce58c18183836040516135a89291906157f6565b60405180910390a1846000036135c957600060c083015290945084906135e3565b8160600151866060018181516135df91906156cb565b9052505b5050505080806135f2906156b2565b91505061340b565b50610b4881614074565b6136118533868685613400565b6000610b4886868686856124dc565b61362d8633878785613400565b610b4886868686600087612c46565b6136498633878785613400565b6000610c168787878785886121b8565b606061366361452a565b604051636dd6f5d160e01b81526001600160a01b0384811660048301529190911690636dd6f5d190602401600060405180830381865afa1580156136ab573d6000803e3d6000fd5b505050506040513d6000823e601f3d908101601f19168201604052610cbb919081019061580b565b600080516020615a698339815191525460405163bf40fac160e01b81526000916001600160a01b03169063bf40fac1906137119085906004016158c5565b602060405180830381865afa15801561372e573d6000803e3d6000fd5b505050506040513d601f19601f82011682018060405250810190610cbb91906158f8565b7fc1dae510251b57b62087f142cc8746564a134308f8810580b66b08a29b6def0460209081527fea5f645e905ce51f13d445af6c6c4807351e05afc3285c7678a21a5986803dc883905560026000527f5d195818f01a1b1fba7a979224b899ed2fcdaa94d0965b168aa45eb161d42a7d82905560408051848152918201839052600080516020615a69833981519152917f575c3ee3963e6c410284c700524d556e59f04881e7ff2702126adcfc33e2e22e910160405180910390a1505050565b6000610cbb82600001518360200151846040015185608001518660c00151612477565b60008061384183612e9a565b805490915060009061385b906001600160a01b0316613659565b60008581526000805160206159c983398151915260205260409020548151919250908114808061388d57506003840154155b8061389757508251155b156138a85750600095945050505050565b60038401545b83518310156138f15760006138cf8286868151811061288357612883615686565b90506138db8183615752565b91506138ea90506001846156cb565b92506138ae565b60008781526000805160206159c983398151915260205260408120849055600386015461391f908390615752565b60038701839055905060007f58d3d64d5ec2e281761bdebe1b59491d61dd8ff0d2fc459c5ee3b128d29f09598961395584615915565b6040805192835260208301919091520160405180910390a16000805160206159e9833981519152896139868b612e9a565b83604051613996939291906156de565b60405180910390a1887f22599c23e6ea88f2526338256e99d3dda3a4734dd2f2cf04b452c215101568e2866040516139d091815260200190565b60405180910390a250600198975050505050505050565b6139f08261455d565b6040516001600160a01b038316907fbc7cd75a20ee27fd9adebab32041f755214dbc6bffa90cc0225b39da2e5c2d3b90600090a2805115613a3557610ced82826145ba565b610cac614627565b60007f360894a13ba1a3210667c828492db98dca3e2076cc3735a920a3ca505d382bbc611870565b6000811580613a7357504282105b905080613a9c57604051632ba8311760e21b815260048101839052426024820152604401610a99565b6000613aab8888888887612477565b90506000613abb82866001613de0565b600080516020615a2983398151915280546001808201835560008390528351805160099093027fd2fb3e2d123acbd86bb5d1017bc7cc3c508609d57ffd5302ed22b358fcf459be810180546001600160a01b039586166001600160a01b031991821617825560208401517fd2fb3e2d123acbd86bb5d1017bc7cc3c508609d57ffd5302ed22b358fcf459bf8401805491881691831691909117905560408401517fd2fb3e2d123acbd86bb5d1017bc7cc3c508609d57ffd5302ed22b358fcf459c0840180549190971691161790945560608201517fd2fb3e2d123acbd86bb5d1017bc7cc3c508609d57ffd5302ed22b358fcf459c182015560808201517fd2fb3e2d123acbd86bb5d1017bc7cc3c508609d57ffd5302ed22b358fcf459c282015560a08201517fd2fb3e2d123acbd86bb5d1017bc7cc3c508609d57ffd5302ed22b358fcf459c3909101805496975094958795929385939160ff191690836004811115613c2a57613c2a614f82565b021790555060c09190910151600690910155602082015160078201805460ff191660018381811115613c5e57613c5e614f82565b0217905550604082015160078201805461ff001916610100836002811115613c8857613c88614f82565b0217905550606091909101516008909101558054600090613cab90600190615752565b90507fa7d58a1e25d2fea28ca76b72e922e949d2592d46feda6df44d1f9f801071c6ab848285604051613ce09392919061577b565b60405180910390a15050505050505050505050565b6040516001600160a01b03838116602483015260448201839052610ced91859182169063a9059cbb906064015b604051602081830303815290604052915060e01b6020820180516001600160e01b038381831617835250505050614646565b60006001600160a01b038216613d6c57506000919050565b613d7461452a565b604051639f8a13d760e01b81526001600160a01b0384811660048301529190911690639f8a13d790602401602060405180830381865afa158015613dbc573d6000803e3d6000fd5b505050506040513d601f19601f82011682018060405250810190610cbb9190615931565b613de8614a47565b613df184614256565b506000613dfd85612e9a565b6040805160e08101825282546001600160a01b03908116825260018401548116602083015260028401541691810191909152600382015460608201526004808301546080830152600583015491929160a084019160ff90911690811115613e6657613e66614f82565b6004811115613e7757613e77614f82565b815260200160068201548152505090508060600151600003613eac57604051630217669b60e31b815260040160405180910390fd5b8381606001511015613ed15760405163162908e360e11b815260040160405180910390fd5b6000836002811115613ee557613ee5614f82565b03613f035760405163d1201ff160e01b815260040160405180910390fd5b613f0d8585614323565b606081018490526000613f1f84610b50565b613f2990426156cb565b60408051608081018252848152600160208201529192508101856002811115613f5457613f54614f82565b81526020019190915295945050505050565b60006064613f7861ffff841685615953565b610bd8919061596a565b613f8a61161c565b6001600160a01b0316826001600160a01b03160361401e57613faa61161c565b60405163a9059cbb60e01b815260006004820152602481018390526001600160a01b03919091169063a9059cbb906044016020604051808303816000875af1158015613ffa573d6000803e3d6000fd5b505050506040513d601f19601f82011682018060405250810190610ced9190615931565b604051630852cd8d60e31b8152600481018290526001600160a01b038316906342966c6890602401600060405180830381600087803b15801561406057600080fd5b505af1158015610b48573d6000803e3d6000fd5b600061407f82613812565b905061408a81614256565b5061409d82604001518360a001516146a9565b6140a682614772565b60006140b182612e9a565b600381015490915015801561418e5760006140cf8560000151613659565b5160608601516003850155855184546001600160a01b03199081166001600160a01b0392831617865560208801516001808801805484169285169290921790915560408901516002880180549093169316929092179055608087015160048087019190915560a08801516005870180549495509093909260ff1990911691849081111561415e5761415e614f82565b021790555060c0850151600684015560008481526000805160206159c983398151915260205260409020556141ac565b83606001518260030160008282546141a691906156cb565b90915550505b6141b584614835565b60608401516040805185815260208101929092527f58d3d64d5ec2e281761bdebe1b59491d61dd8ff0d2fc459c5ee3b128d29f0959910160405180910390a16000805160206159e98339815191528361420d85612e9a565b83604051613338939291906156de565b6040516001600160a01b038481166024830152838116604483015260648201839052610e459186918216906323b872dd90608401613d22565b60008061426283613835565b9050600061426f84612e9a565b6040805160e08101825282546001600160a01b03908116825260018401548116602083015260028401541691810191909152600382015460608201526004808301546080830152600583015491929160a084019160ff909116908111156142d8576142d8614f82565b60048111156142e9576142e9614f82565b81526020016006820154815250509050600061431282600001518360400151846080015161280e565b90508280610fdc5750949350505050565b600061432e83612e9a565b9050806003015460000361435557604051630217669b60e31b815260040160405180910390fd5b60038101548211158061437b5760405163162908e360e11b815260040160405180910390fd5b8282600301600082825461438f9190615752565b90915550600090507f58d3d64d5ec2e281761bdebe1b59491d61dd8ff0d2fc459c5ee3b128d29f0959856143c286615915565b6040805192835260208301919091520160405180910390a16000805160206159e9833981519152856143f387612e9a565b83604051614403939291906156de565b60405180910390a16040805160e08101825284546001600160a01b039081168252600186015481166020830152600286015416918101919091526003840154606082015260048085015460808301526005850154610bf69291869160a084019160ff9091169081111561447857614478614f82565b600481111561448957614489614f82565b815260200160068201548152505085614871565b600080516020615a098339815191525460ff16610e0a57604051638dfc202b60e01b815260040160405180910390fd5b6002600054036144f057604051633ee5aeb560e01b815260040160405180910390fd5b6002600055565b42811180614503575080155b1561196957604051633637bf8b60e01b815260048101829052426024820152604401610a99565b60006116436040518060400160405280601081526020016f36b0b9ba32b916bb30b634b230ba37b960811b8152506136d3565b806001600160a01b03163b60000361459357604051634c9c8ce360e01b81526001600160a01b0382166004820152602401610a99565b807f360894a13ba1a3210667c828492db98dca3e2076cc3735a920a3ca505d382bbc610fab565b6060600080846001600160a01b0316846040516145d7919061598c565b600060405180830381855af49150503d8060008114614612576040519150601f19603f3d011682016040523d82523d6000602084013e614617565b606091505b5091509150610fdc8583836148aa565b3415610e0a5760405163b398979f60e01b815260040160405180910390fd5b600061465b6001600160a01b03841683614906565b9050805160001415801561468057508080602001905181019061467e9190615931565b155b15610ced57604051635274afe760e01b81526001600160a01b0384166004820152602401610a99565b6146b161161c565b6001600160a01b0316826001600160a01b0316036146cd575050565b6001600160a01b038216158061475457506146e6614914565b604051634f6a7d2d60e11b81526001600160a01b0384811660048301529190911690639ed4fa5a90602401602060405180830381865afa15801561472e573d6000803e3d6000fd5b505050506040513d601f19601f820116820180604052508101906147529190615931565b155b15610cac5760405163c1ab6dc160e01b815260040160405180910390fd5b60c0810151158015906147895750428160c0015111155b156147af578060c0015160405163270ca01d60e01b8152600401610a9991815260200190565b60408101516001600160a01b03166147da5760405163d92e233d60e01b815260040160405180910390fd5b80606001516000036147ff57604051631f2a200560e01b815260040160405180910390fd5b60008160a00151600481111561481757614817614f82565b036119695760405163a1e9dd9d60e01b815260040160405180910390fd5b600061484e826000015183604001518460800151612dfd565b9050816060015181600101600082825461486891906156cb565b90915550505050565b600061488a836000015184604001518560800151612dfd565b9050818160010160008282546148a09190615752565b9091555050505050565b6060826148bf576148ba82614943565b610bd8565b81511580156148d657506001600160a01b0384163b155b156148ff57604051639996b31560e01b81526001600160a01b0385166004820152602401610a99565b5080610bd8565b6060610bd88383600061496c565b60006116436040518060400160405280600c81526020016b3a37b5b2b716b1b2b73a32b960a11b8152506136d3565b8051156149535780518082602001fd5b604051630a12f52160e11b815260040160405180910390fd5b6060814710156149915760405163cd78605960e01b8152306004820152602401610a99565b600080856001600160a01b031684866040516149ad919061598c565b60006040518083038185875af1925050503d80600081146149ea576040519150601f19603f3d011682016040523d82523d6000602084013e6149ef565b606091505b50915091506149ff8683836148aa565b9695505050505050565b6040805160e08101825260008082526020820181905291810182905260608101829052608081018290529060a08201905b8152602001600081525090565b6040518060800160405280614a5a614a09565b8152602001600081526020016000614a3a565b634e487b7160e01b600052604160045260246000fd5b604051606081016001600160401b0381118282101715614aa557614aa5614a6d565b60405290565b604051601f8201601f191681016001600160401b0381118282101715614ad357614ad3614a6d565b604052919050565b60006001600160401b03821115614af457614af4614a6d565b5060051b60200190565b6001600160a01b038116811461196957600080fd5b600082601f830112614b2457600080fd5b81356020614b39614b3483614adb565b614aab565b82815260059290921b84018101918181019086841115614b5857600080fd5b8286015b84811015614b7c578035614b6f81614afe565b8352918301918301614b5c565b509695505050505050565b600082601f830112614b9857600080fd5b81356020614ba8614b3483614adb565b82815260059290921b84018101918181019086841115614bc757600080fd5b8286015b84811015614b7c5780358352918301918301614bcb565b60008060008060808587031215614bf857600080fd5b84356001600160401b0380821115614c0f57600080fd5b614c1b88838901614b13565b95506020870135915080821115614c3157600080fd5b614c3d88838901614b13565b94506040870135915080821115614c5357600080fd5b614c5f88838901614b87565b93506060870135915080821115614c7557600080fd5b50614c8287828801614b13565b91505092959194509250565b600060208284031215614ca057600080fd5b813560038110610bd857600080fd5b600080600080600060a08688031215614cc757600080fd5b8535614cd281614afe565b94506020860135614ce281614afe565b935060408601359250606086013591506080860135614d0081614afe565b809150509295509295909350565b600080600060608486031215614d2357600080fd5b8335614d2e81614afe565b92506020840135614d3e81614afe565b91506040840135614d4e81614afe565b809150509250925092565b60008060008060808587031215614d6f57600080fd5b8435614d7a81614afe565b93506020850135614d8a81614afe565b93969395505050506040820135916060013590565b803560ff81168114614db057600080fd5b919050565b600080600080600080600060e0888a031215614dd057600080fd5b8735614ddb81614afe565b96506020880135614deb81614afe565b95506040880135945060608801359350614e0760808901614d9f565b925060a0880135915060c0880135905092959891949750929550565b60006020808385031215614e3657600080fd5b82356001600160401b03811115614e4c57600080fd5b8301601f81018513614e5d57600080fd5b8035614e6b614b3482614adb565b81815260609182028301840191848201919088841115614e8a57600080fd5b938501935b83851015614ee65780858a031215614ea75760008081fd5b614eaf614a83565b8535614eba81614afe565b815285870135614ec981614afe565b818801526040868101359082015283529384019391850191614e8f565b50979650505050505050565b60006020808385031215614f0557600080fd5b82356001600160401b03811115614f1b57600080fd5b8301601f81018513614f2c57600080fd5b8035614f3a614b3482614adb565b81815260059190911b82018301908381019087831115614f5957600080fd5b928401925b82841015614f7757833582529284019290840190614f5e565b979650505050505050565b634e487b7160e01b600052602160045260246000fd5b60058110614fa857614fa8614f82565b9052565b60018060a01b0380825116835280602083015116602084015280604083015116604084015250606081015160608301526080810151608083015260a0810151614ff860a0840182614f98565b5060c090810151910152565b6020808252825182820181905260009190848201906040850190845b8181101561504657615033838551614fac565b9284019260e09290920191600101615020565b50909695505050505050565b6000806000806080858703121561506857600080fd5b843561507381614afe565b9350602085013561508381614afe565b9250604085013561509381614afe565b9396929550929360600135925050565b600080604083850312156150b657600080fd5b82356150c181614afe565b915060208301356150d181614afe565b809150509250929050565b600080600080600060a086880312156150f457600080fd5b85356150ff81614afe565b9450602086013561510f81614afe565b94979496505050506040830135926060810135926080909101359150565b60e08101610cbb8284614fac565b60006020828403121561514d57600080fd5b81356001600160401b0381111561516357600080fd5b610df284828501614b87565b60006020828403121561518157600080fd5b8135610bd881614afe565b600080600080600080600080610100898b0312156151a957600080fd5b88356151b481614afe565b975060208901356151c481614afe565b96506040890135955060608901359450608089013593506151e760a08a01614d9f565b925060c0890135915060e089013590509295985092959890939650565b61520f828251614fac565b60208101516002811061522457615224614f82565b60e083015260408101516003811061523e5761523e614f82565b6101008301526060015161012090910152565b6020808252825182820181905260009190848201906040850190845b8181101561504657615280838551615204565b92840192610140929092019160010161526d565b6000806000606084860312156152a957600080fd5b83356152b481614afe565b925060208401356152c481614afe565b929592945050506040919091013590565b600080600080608085870312156152eb57600080fd5b84356152f681614afe565b9350602085013561530681614afe565b9250604085013561531681614afe565b915060608501356001600160401b0381111561533157600080fd5b614c8287828801614b87565b6000806000806080858703121561535357600080fd5b843561535e81614afe565b9350602085013561536e81614afe565b92506040850135915060608501356001600160401b0381111561533157600080fd5b600080600080600060a086880312156153a857600080fd5b85356153b381614afe565b945060208601356153c381614afe565b9350604086013592506060860135915060808601356001600160401b038111156153ec57600080fd5b6153f888828901614b87565b9150509295509295909350565b600080600080600060a0868803121561541d57600080fd5b853561542881614afe565b9450602086013561543881614afe565b935060408601359250606086013561544f81614afe565b915060808601356001600160401b038111156153ec57600080fd5b6000806040838503121561547d57600080fd5b823561548881614afe565b946020939093013593505050565b600080600080608085870312156154ac57600080fd5b84356154b781614afe565b935060208501356154c781614afe565b92506040850135915060608501356154de81614afe565b939692955090935050565b600080600080608085870312156154ff57600080fd5b84356001600160401b038082111561551657600080fd5b61552288838901614b13565b9550602087013591508082111561553857600080fd5b61554488838901614b13565b9450604087013591508082111561555a57600080fd5b614c5f88838901614b13565b6000806040838503121561557957600080fd5b50508035926020909101359150565b6000806040838503121561559b57600080fd5b82356155a681614afe565b91506020838101356001600160401b03808211156155c357600080fd5b818601915086601f8301126155d757600080fd5b8135818111156155e9576155e9614a6d565b6155fb601f8201601f19168501614aab565b9150808252878482850101111561561157600080fd5b80848401858401376000848284010152508093505050509250929050565b60006020828403121561564157600080fd5b5035919050565b6101408101610cbb8284615204565b602080825260159082015274496e76616c6964206172726179206c656e6774687360581b604082015260600190565b634e487b7160e01b600052603260045260246000fd5b634e487b7160e01b600052601160045260246000fd5b6000600182016156c4576156c461569c565b5060010190565b80820180821115610cbb57610cbb61569c565b83815282546001600160a01b039081166020830152600184015481166040830152600284015416606082015260038301546080820152600483015460a0820152600583015461012082019060ff1661573960c0840182614f98565b50600684015460e0830152821515610100830152610df2565b81810381811115610cbb57610cbb61569c565b634e487b7160e01b600052603160045260246000fd5b838152602081018390526101808101610df26040830184615204565b6001600160a01b038616815260a081016157b46020830187614f98565b8460408301528360608301528260808301529695505050505050565b83815261012081016157e56020830185614fac565b821515610100830152949350505050565b8281526101008101610bd86020830184614fac565b6000602080838503121561581e57600080fd5b82516001600160401b0381111561583457600080fd5b8301601f8101851361584557600080fd5b8051615853614b3482614adb565b81815260059190911b8201830190838101908783111561587257600080fd5b928401925b82841015614f7757835161ffff811681146158925760008081fd5b82529284019290840190615877565b60005b838110156158bc5781810151838201526020016158a4565b50506000910152565b60208152600082518060208401526158e48160408501602087016158a1565b601f01601f19169190910160400192915050565b60006020828403121561590a57600080fd5b8151610bd881614afe565b6000600160ff1b820161592a5761592a61569c565b5060000390565b60006020828403121561594357600080fd5b81518015158114610bd857600080fd5b8082028115828204841417610cbb57610cbb61569c565b60008261598757634e487b7160e01b600052601260045260246000fd5b500490565b6000825161599e8184602087016158a1565b919091019291505056fed92fb98890f4a927a2850eac803b570950d9a3cb4225c0de7badfaf82a9fc800c1dae510251b57b62087f142cc8746564a134308f8810580b66b08a29b6def0271a822c8b2dd1c5369373dd93ec6a6b04cf7d41eb154314433c73f4f8856c03bcd5ed15c6e187e77e9aee88184c21f4f2182ab5827cb3b7e07fbedcd63f03300c1dae510251b57b62087f142cc8746564a134308f8810580b66b08a29b6def03f5c5432de34b3d8107ca8b5be5379cdfbb805a494446d6f3a0b6d1714a3e2dc7c1dae510251b57b62087f142cc8746564a134308f8810580b66b08a29b6def00a2646970667358221220f7bc2557b0d900f4cd43eeec9fdf73bee1c69e804e2771854ec2b8b92b5fe50564736f6c63430008140033",
  "linkReferences": {},
  "deployedLinkReferences": {}
}